{
  "address": "0x8071Db05f6f3D78C31b2a157348D866B4B9339fe",
  "abi": [
    {
      "inputs": [
        {
          "internalType": "contract IERC20",
          "name": "_token",
          "type": "address"
        },
        {
          "internalType": "address",
          "name": "_admin",
          "type": "address"
        },
        {
          "internalType": "address",
          "name": "_wallet",
          "type": "address"
        },
        {
          "internalType": "uint256",
          "name": "_unlockCycle",
          "type": "uint256"
        }
      ],
      "stateMutability": "nonpayable",
      "type": "constructor"
    },
    {
      "anonymous": false,
      "inputs": [
        {
          "indexed": false,
          "internalType": "uint256",
          "name": "_claimedBlock",
          "type": "uint256"
        },
        {
          "indexed": true,
          "internalType": "uint256",
          "name": "_amount",
          "type": "uint256"
        },
        {
          "indexed": true,
          "internalType": "address",
          "name": "_wallet",
          "type": "address"
        }
      ],
      "name": "Claimed",
      "type": "event"
    },
    {
      "anonymous": false,
      "inputs": [
        {
          "indexed": true,
          "internalType": "address",
          "name": "_newAdmin",
          "type": "address"
        }
      ],
      "name": "SetAdmin",
      "type": "event"
    },
    {
      "anonymous": false,
      "inputs": [
        {
          "indexed": true,
          "internalType": "address",
          "name": "_newWallet",
          "type": "address"
        }
      ],
      "name": "SetWallet",
      "type": "event"
    },
    {
      "inputs": [],
      "name": "UNLOCK_AMOUNT",
      "outputs": [
        {
          "internalType": "uint256",
          "name": "",
          "type": "uint256"
        }
      ],
      "stateMutability": "view",
      "type": "function"
    },
    {
      "inputs": [],
      "name": "UNLOCK_CYCLE",
      "outputs": [
        {
          "internalType": "uint256",
          "name": "",
          "type": "uint256"
        }
      ],
      "stateMutability": "view",
      "type": "function"
    },
    {
      "inputs": [],
      "name": "admin",
      "outputs": [
        {
          "internalType": "address",
          "name": "",
          "type": "address"
        }
      ],
      "stateMutability": "view",
      "type": "function"
    },
    {
      "inputs": [],
      "name": "blocksPerMonth",
      "outputs": [
        {
          "internalType": "uint256",
          "name": "",
          "type": "uint256"
        }
      ],
      "stateMutability": "view",
      "type": "function"
    },
    {
      "inputs": [],
      "name": "claim",
      "outputs": [],
      "stateMutability": "nonpayable",
      "type": "function"
    },
    {
      "inputs": [],
      "name": "lastClaimIndex",
      "outputs": [
        {
          "internalType": "uint256",
          "name": "",
          "type": "uint256"
        }
      ],
      "stateMutability": "view",
      "type": "function"
    },
    {
      "inputs": [
        {
          "internalType": "address",
          "name": "_newWallet",
          "type": "address"
        }
      ],
      "name": "setWallet",
      "outputs": [],
      "stateMutability": "nonpayable",
      "type": "function"
    },
    {
      "inputs": [],
      "name": "token",
      "outputs": [
        {
          "internalType": "contract IERC20",
          "name": "",
          "type": "address"
        }
      ],
      "stateMutability": "view",
      "type": "function"
    },
    {
      "inputs": [
        {
          "internalType": "address",
          "name": "_newAdmin",
          "type": "address"
        }
      ],
      "name": "transferOwnership",
      "outputs": [],
      "stateMutability": "nonpayable",
      "type": "function"
    },
    {
      "inputs": [
        {
          "internalType": "uint256",
          "name": "",
          "type": "uint256"
        }
      ],
      "name": "unlockedAmount",
      "outputs": [
        {
          "internalType": "uint256",
          "name": "",
          "type": "uint256"
        }
      ],
      "stateMutability": "view",
      "type": "function"
    },
    {
      "inputs": [],
      "name": "vestingStartBlock",
      "outputs": [
        {
          "internalType": "uint256",
          "name": "",
          "type": "uint256"
        }
      ],
      "stateMutability": "view",
      "type": "function"
    },
    {
      "inputs": [],
      "name": "wallet",
      "outputs": [
        {
          "internalType": "address",
          "name": "",
          "type": "address"
        }
      ],
      "stateMutability": "view",
      "type": "function"
    }
  ],
  "transactionHash": "0x502270a63f25f0abcfcf813b1a54289dd6e1c5da39da95ab509829c281d64ebf",
  "args": [
    "0x13c99770694f07279607a6274f28a28c33086424",
    "0xabB6D4a1015e291b1bc71e7e56ff2c9204665b07",
    "0xabB6D4a1015e291b1bc71e7e56ff2c9204665b07",
    172800
  ],
  "solcInputHash": "eefc74bf310ff2cc826d0f05c87d822b",
  "bytecode": "0x60e06040523480156200001157600080fd5b5060405162001d9338038062001d93833981810160405281019062000037919062000314565b600073ffffffffffffffffffffffffffffffffffffffff168473ffffffffffffffffffffffffffffffffffffffff161415620000aa576040517f08c379a0000000000000000000000000000000000000000000000000000000008152600401620000a19062000482565b60405180910390fd5b600073ffffffffffffffffffffffffffffffffffffffff168373ffffffffffffffffffffffffffffffffffffffff1614156200011d576040517f08c379a000000000000000000000000000000000000000000000000000000000815260040162000114906200043e565b60405180910390fd5b600073ffffffffffffffffffffffffffffffffffffffff168273ffffffffffffffffffffffffffffffffffffffff16141562000190576040517f08c379a0000000000000000000000000000000000000000000000000000000008152600401620001879062000460565b60405180910390fd5b600081118015620001a457506202a3008111155b620001e6576040517f08c379a0000000000000000000000000000000000000000000000000000000008152600401620001dd906200041c565b60405180910390fd5b82600160006101000a81548173ffffffffffffffffffffffffffffffffffffffff021916908373ffffffffffffffffffffffffffffffffffffffff1602179055508373ffffffffffffffffffffffffffffffffffffffff1660c08173ffffffffffffffffffffffffffffffffffffffff1660601b815250508060a08181525050600143620002759190620004b5565b6080818152505081600260006101000a81548173ffffffffffffffffffffffffffffffffffffffff021916908373ffffffffffffffffffffffffffffffffffffffff16021790555060016000819055505050505062000685565b600081519050620002e08162000637565b92915050565b600081519050620002f78162000651565b92915050565b6000815190506200030e816200066b565b92915050565b600080600080608085870312156200032b57600080fd5b60006200033b87828801620002e6565b94505060206200034e87828801620002cf565b93505060406200036187828801620002cf565b92505060606200037487828801620002fd565b91505092959194509250565b60006200038f602083620004a4565b91506200039c8262000593565b602082019050919050565b6000620003b6601a83620004a4565b9150620003c382620005bc565b602082019050919050565b6000620003dd601b83620004a4565b9150620003ea82620005e5565b602082019050919050565b600062000404601983620004a4565b915062000411826200060e565b602082019050919050565b60006020820190508181036000830152620004378162000380565b9050919050565b600060208201905081810360008301526200045981620003a7565b9050919050565b600060208201905081810360008301526200047b81620003ce565b9050919050565b600060208201905081810360008301526200049d81620003f5565b9050919050565b600082825260208201905092915050565b6000620004c2826200055a565b9150620004cf836200055a565b9250827fffffffffffffffffffffffffffffffffffffffffffffffffffffffffffffffff0382111562000507576200050662000564565b5b828201905092915050565b60006200051f826200053a565b9050919050565b6000620005338262000512565b9050919050565b600073ffffffffffffffffffffffffffffffffffffffff82169050919050565b6000819050919050565b7f4e487b7100000000000000000000000000000000000000000000000000000000600052601160045260246000fd5b7f636f6e7374727563746f723a20696e76616c696420756e6c6f636b4379636c65600082015250565b7f636f6e7374727563746f723a20696e76616c69642061646d696e000000000000600082015250565b7f636f6e7374727563746f723a20696e76616c69642077616c6c65740000000000600082015250565b7f636f6e7374727563746f723a20696e76616c6964204d54524c00000000000000600082015250565b620006428162000512565b81146200064e57600080fd5b50565b6200065c8162000526565b81146200066857600080fd5b50565b62000676816200055a565b81146200068257600080fd5b50565b60805160a05160c05160601c6116b1620006e26000396000818161031c0152818161051d0152610a5d0152600081816102b70152818161040c015261065101526000818161022401528181610289015261060f01526116b16000f3fe608060405234801561001057600080fd5b50600436106100b45760003560e01c8063c90376e411610071578063c90376e414610159578063d51f6fa214610189578063deaa59df146101a7578063f2fde38b146101c3578063f851a440146101df578063fc0c546a146101fd576100b4565b806331e92f32146100b95780634e71d92d146100d7578063521eb273146100e15780635ae18744146100ff5780639edf4e641461011d578063b6349ab51461013b575b600080fd5b6100c161021b565b6040516100ce91906111f4565b60405180910390f35b6100df610222565b005b6100e96105d9565b6040516100f69190611053565b60405180910390f35b6101076105ff565b60405161011491906111f4565b60405180910390f35b61012561060d565b60405161013291906111f4565b60405180910390f35b610143610631565b60405161015091906111f4565b60405180910390f35b610173600480360381019061016e9190610e18565b610637565b60405161018091906111f4565b60405180910390f35b61019161064f565b60405161019e91906111f4565b60405180910390f35b6101c160048036038101906101bc9190610dc6565b610673565b005b6101dd60048036038101906101d89190610dc6565b610854565b005b6101e7610a35565b6040516101f49190611053565b60405180910390f35b610205610a5b565b6040516102129190611097565b60405180910390f35b6202a30081565b7f0000000000000000000000000000000000000000000000000000000000000000431015610285576040517f08c379a000000000000000000000000000000000000000000000000000000000815260040161027c90611114565b60405180910390fd5b60007f0000000000000000000000000000000000000000000000000000000000000000436102b391906112c8565b90507f0000000000000000000000000000000000000000000000000000000000000000811015610318576040517f08c379a000000000000000000000000000000000000000000000000000000000815260040161030f90611134565b60405180910390fd5b60007f000000000000000000000000000000000000000000000000000000000000000073ffffffffffffffffffffffffffffffffffffffff166370a08231306040518263ffffffff1660e01b81526004016103739190611053565b60206040518083038186803b15801561038b57600080fd5b505afa15801561039f573d6000803e3d6000fd5b505050506040513d601f19601f820116820180604052508101906103c39190610e41565b905060008111610408576040517f08c379a00000000000000000000000000000000000000000000000000000000081526004016103ff906110d4565b60405180910390fd5b60007f0000000000000000000000000000000000000000000000000000000000000000836104369190611297565b905060008060005490505b8281116104ea57818411801561046a575060006003600083815260200190815260200160002054145b156104d7576000828561047d91906112c8565b9050600069d3c21bcecceda100000082101561049957816104a5565b69d3c21bcecceda10000005b905080600360008581526020019081526020016000208190555080846104cb9190611241565b93508260008190555050505b80806104e29061139b565b915050610441565b5060008111156105d357610561600260009054906101000a900473ffffffffffffffffffffffffffffffffffffffff16827f000000000000000000000000000000000000000000000000000000000000000073ffffffffffffffffffffffffffffffffffffffff16610a7f9092919063ffffffff16565b600260009054906101000a900473ffffffffffffffffffffffffffffffffffffffff1673ffffffffffffffffffffffffffffffffffffffff16817fc09f7b3c1c5b70bf6d30e485a4525d625d4723aed5d319376825446ef135c7ca436040516105ca91906111f4565b60405180910390a35b50505050565b600260009054906101000a900473ffffffffffffffffffffffffffffffffffffffff1681565b69d3c21bcecceda100000081565b7f000000000000000000000000000000000000000000000000000000000000000081565b60005481565b60036020528060005260406000206000915090505481565b7f000000000000000000000000000000000000000000000000000000000000000081565b3373ffffffffffffffffffffffffffffffffffffffff16600160009054906101000a900473ffffffffffffffffffffffffffffffffffffffff1673ffffffffffffffffffffffffffffffffffffffff1614610703576040517f08c379a00000000000000000000000000000000000000000000000000000000081526004016106fa906111b4565b60405180910390fd5b600073ffffffffffffffffffffffffffffffffffffffff168173ffffffffffffffffffffffffffffffffffffffff161415801561078e5750600260009054906101000a900473ffffffffffffffffffffffffffffffffffffffff1673ffffffffffffffffffffffffffffffffffffffff168173ffffffffffffffffffffffffffffffffffffffff1614155b6107cd576040517f08c379a00000000000000000000000000000000000000000000000000000000081526004016107c490611174565b60405180910390fd5b80600260006101000a81548173ffffffffffffffffffffffffffffffffffffffff021916908373ffffffffffffffffffffffffffffffffffffffff1602179055508073ffffffffffffffffffffffffffffffffffffffff167fe80d9383fb35934b174e9a5986b6ec524e533eae802ba534282f7b0c5fdd42cc60405160405180910390a250565b3373ffffffffffffffffffffffffffffffffffffffff16600160009054906101000a900473ffffffffffffffffffffffffffffffffffffffff1673ffffffffffffffffffffffffffffffffffffffff16146108e4576040517f08c379a00000000000000000000000000000000000000000000000000000000081526004016108db906111b4565b60405180910390fd5b8073ffffffffffffffffffffffffffffffffffffffff16600160009054906101000a900473ffffffffffffffffffffffffffffffffffffffff1673ffffffffffffffffffffffffffffffffffffffff161415801561096f5750600073ffffffffffffffffffffffffffffffffffffffff168173ffffffffffffffffffffffffffffffffffffffff1614155b6109ae576040517f08c379a00000000000000000000000000000000000000000000000000000000081526004016109a5906110f4565b60405180910390fd5b80600160006101000a81548173ffffffffffffffffffffffffffffffffffffffff021916908373ffffffffffffffffffffffffffffffffffffffff1602179055508073ffffffffffffffffffffffffffffffffffffffff167f5a272403b402d892977df56625f4164ccaf70ca3863991c43ecfe76a6905b0a160405160405180910390a250565b600160009054906101000a900473ffffffffffffffffffffffffffffffffffffffff1681565b7f000000000000000000000000000000000000000000000000000000000000000081565b610b008363a9059cbb60e01b8484604051602401610a9e92919061106e565b604051602081830303815290604052907bffffffffffffffffffffffffffffffffffffffffffffffffffffffff19166020820180517bffffffffffffffffffffffffffffffffffffffffffffffffffffffff8381831617835250505050610b05565b505050565b6000610b67826040518060400160405280602081526020017f5361666545524332303a206c6f772d6c6576656c2063616c6c206661696c65648152508573ffffffffffffffffffffffffffffffffffffffff16610bcc9092919063ffffffff16565b9050600081511115610bc75780806020019051810190610b879190610def565b610bc6576040517f08c379a0000000000000000000000000000000000000000000000000000000008152600401610bbd906111d4565b60405180910390fd5b5b505050565b6060610bdb8484600085610be4565b90509392505050565b606082471015610c29576040517f08c379a0000000000000000000000000000000000000000000000000000000008152600401610c2090611154565b60405180910390fd5b610c3285610cf8565b610c71576040517f08c379a0000000000000000000000000000000000000000000000000000000008152600401610c6890611194565b60405180910390fd5b6000808673ffffffffffffffffffffffffffffffffffffffff168587604051610c9a919061103c565b60006040518083038185875af1925050503d8060008114610cd7576040519150601f19603f3d011682016040523d82523d6000602084013e610cdc565b606091505b5091509150610cec828286610d0b565b92505050949350505050565b600080823b905060008111915050919050565b60608315610d1b57829050610d6b565b600083511115610d2e5782518084602001fd5b816040517f08c379a0000000000000000000000000000000000000000000000000000000008152600401610d6291906110b2565b60405180910390fd5b9392505050565b600081359050610d8181611636565b92915050565b600081519050610d968161164d565b92915050565b600081359050610dab81611664565b92915050565b600081519050610dc081611664565b92915050565b600060208284031215610dd857600080fd5b6000610de684828501610d72565b91505092915050565b600060208284031215610e0157600080fd5b6000610e0f84828501610d87565b91505092915050565b600060208284031215610e2a57600080fd5b6000610e3884828501610d9c565b91505092915050565b600060208284031215610e5357600080fd5b6000610e6184828501610db1565b91505092915050565b610e73816112fc565b82525050565b6000610e848261120f565b610e8e8185611225565b9350610e9e818560208601611368565b80840191505092915050565b610eb381611344565b82525050565b6000610ec48261121a565b610ece8185611230565b9350610ede818560208601611368565b610ee781611442565b840191505092915050565b6000610eff601083611230565b9150610f0a82611453565b602082019050919050565b6000610f22602083611230565b9150610f2d8261147c565b602082019050919050565b6000610f45601a83611230565b9150610f50826114a5565b602082019050919050565b6000610f68601883611230565b9150610f73826114ce565b602082019050919050565b6000610f8b602683611230565b9150610f96826114f7565b604082019050919050565b6000610fae601983611230565b9150610fb982611546565b602082019050919050565b6000610fd1601d83611230565b9150610fdc8261156f565b602082019050919050565b6000610ff4602283611230565b9150610fff82611598565b604082019050919050565b6000611017602a83611230565b9150611022826115e7565b604082019050919050565b6110368161133a565b82525050565b60006110488284610e79565b915081905092915050565b60006020820190506110686000830184610e6a565b92915050565b60006040820190506110836000830185610e6a565b611090602083018461102d565b9392505050565b60006020820190506110ac6000830184610eaa565b92915050565b600060208201905081810360008301526110cc8184610eb9565b905092915050565b600060208201905081810360008301526110ed81610ef2565b9050919050565b6000602082019050818103600083015261110d81610f15565b9050919050565b6000602082019050818103600083015261112d81610f38565b9050919050565b6000602082019050818103600083015261114d81610f5b565b9050919050565b6000602082019050818103600083015261116d81610f7e565b9050919050565b6000602082019050818103600083015261118d81610fa1565b9050919050565b600060208201905081810360008301526111ad81610fc4565b9050919050565b600060208201905081810360008301526111cd81610fe7565b9050919050565b600060208201905081810360008301526111ed8161100a565b9050919050565b6000602082019050611209600083018461102d565b92915050565b600081519050919050565b600081519050919050565b600081905092915050565b600082825260208201905092915050565b600061124c8261133a565b91506112578361133a565b9250827fffffffffffffffffffffffffffffffffffffffffffffffffffffffffffffffff0382111561128c5761128b6113e4565b5b828201905092915050565b60006112a28261133a565b91506112ad8361133a565b9250826112bd576112bc611413565b5b828204905092915050565b60006112d38261133a565b91506112de8361133a565b9250828210156112f1576112f06113e4565b5b828203905092915050565b60006113078261131a565b9050919050565b60008115159050919050565b600073ffffffffffffffffffffffffffffffffffffffff82169050919050565b6000819050919050565b600061134f82611356565b9050919050565b60006113618261131a565b9050919050565b60005b8381101561138657808201518184015260208101905061136b565b83811115611395576000848401525b50505050565b60006113a68261133a565b91507fffffffffffffffffffffffffffffffffffffffffffffffffffffffffffffffff8214156113d9576113d86113e4565b5b600182019050919050565b7f4e487b7100000000000000000000000000000000000000000000000000000000600052601160045260246000fd5b7f4e487b7100000000000000000000000000000000000000000000000000000000600052601260045260246000fd5b6000601f19601f8301169050919050565b7f636c61696d3a206e6f20746f6b656e7300000000000000000000000000000000600082015250565b7f7472616e736665724f776e6572736869703a20696e76616c69642061646d696e600082015250565b7f636c61696d3a2076657374696e67206e6f742073746172746564000000000000600082015250565b7f636c61696d3a206e6f7420636c61696d61626c65207965740000000000000000600082015250565b7f416464726573733a20696e73756666696369656e742062616c616e636520666f60008201527f722063616c6c0000000000000000000000000000000000000000000000000000602082015250565b7f73657457616c6c65743a20696e76616c69642077616c6c657400000000000000600082015250565b7f416464726573733a2063616c6c20746f206e6f6e2d636f6e7472616374000000600082015250565b7f6f6e6c7941646d696e3a2063616c6c6572206973206e6f7420746865206f776e60008201527f6572000000000000000000000000000000000000000000000000000000000000602082015250565b7f5361666545524332303a204552433230206f7065726174696f6e20646964206e60008201527f6f74207375636365656400000000000000000000000000000000000000000000602082015250565b61163f816112fc565b811461164a57600080fd5b50565b6116568161130e565b811461166157600080fd5b50565b61166d8161133a565b811461167857600080fd5b5056fea26469706673582212201a4af7751eaeeda5951701816f5808c4818a1039ec83e0ab3c54bb5f2e94ba9e64736f6c63430008040033",
  "devdoc": {
    "kind": "dev",
    "methods": {
      "claim()": {
        "details": "anyone can call this function to transfer unlocked tokens to the wallet"
      },
      "setWallet(address)": {
        "details": "setWallet",
        "params": {
          "_newWallet": "new address of wallet that will receive unlocked tokens"
        }
      },
      "transferOwnership(address)": {
        "details": "transfer ownership"
      }
    },
    "version": 1
  },
  "userdoc": {
    "kind": "user",
    "methods": {
      "UNLOCK_AMOUNT()": {
        "notice": "amount of tokens that will be unlocked per month"
      },
      "UNLOCK_CYCLE()": {
        "notice": "tokens will be unlocked per this cycle"
      },
      "admin()": {
        "notice": "admin"
      },
      "blocksPerMonth()": {
        "notice": "blocks per month by assuming 4 blocks per minute"
      },
      "lastClaimIndex()": {
        "notice": "lastClaimIndex"
      },
      "token()": {
        "notice": "vesting token (in our case, MTRL)"
      },
      "unlockedAmount(uint256)": {
        "notice": "return unlocked amount per month"
      },
      "vestingStartBlock()": {
        "notice": "blockNumber that vesting will start"
      },
      "wallet()": {
        "notice": "address that will receive unlocked tokens"
      }
    },
    "version": 1
  },
  "storageLayout": {
    "storage": [
      {
        "astId": 629,
        "contract": "contracts/MTRLVesting.sol:MTRLVesting",
        "label": "lastClaimIndex",
        "offset": 0,
        "slot": "0",
        "type": "t_uint256"
      },
      {
        "astId": 636,
        "contract": "contracts/MTRLVesting.sol:MTRLVesting",
        "label": "admin",
        "offset": 0,
        "slot": "1",
        "type": "t_address"
      },
      {
        "astId": 639,
        "contract": "contracts/MTRLVesting.sol:MTRLVesting",
        "label": "wallet",
        "offset": 0,
        "slot": "2",
        "type": "t_address"
      },
      {
        "astId": 644,
        "contract": "contracts/MTRLVesting.sol:MTRLVesting",
        "label": "unlockedAmount",
        "offset": 0,
        "slot": "3",
        "type": "t_mapping(t_uint256,t_uint256)"
      }
    ],
    "types": {
      "t_address": {
        "encoding": "inplace",
        "label": "address",
        "numberOfBytes": "20"
      },
      "t_mapping(t_uint256,t_uint256)": {
        "encoding": "mapping",
        "key": "t_uint256",
        "label": "mapping(uint256 => uint256)",
        "numberOfBytes": "32",
        "value": "t_uint256"
      },
      "t_uint256": {
        "encoding": "inplace",
        "label": "uint256",
        "numberOfBytes": "32"
      }
    }
  }
}